{
  "contractName": "DSProxyCache",
  "abi": [
    {
      "constant": true,
      "inputs": [
        {
          "internalType": "bytes",
          "name": "_code",
          "type": "bytes"
        }
      ],
      "name": "read",
      "outputs": [
        {
          "internalType": "address",
          "name": "",
          "type": "address"
        }
      ],
      "payable": false,
      "stateMutability": "view",
      "type": "function"
    },
    {
      "constant": false,
      "inputs": [
        {
          "internalType": "bytes",
          "name": "_code",
          "type": "bytes"
        }
      ],
      "name": "write",
      "outputs": [
        {
          "internalType": "address",
          "name": "target",
          "type": "address"
        }
      ],
      "payable": false,
      "stateMutability": "nonpayable",
      "type": "function"
    }
  ],
  "bytecode": "0x608060405234801561001057600080fd5b50610334806100206000396000f3fe608060405234801561001057600080fd5b50600436106100365760003560e01c80637ed0c3b21461003b5780638bf4515c14610136575b600080fd5b6100f46004803603602081101561005157600080fd5b810190808035906020019064010000000081111561006e57600080fd5b82018360208201111561008057600080fd5b803590602001918460018302840111640100000000831117156100a257600080fd5b91908080601f016020809104026020016040519081016040528093929190818152602001838380828437600081840152601f19601f820116905080830192505050505050509192919290505050610231565b604051808273ffffffffffffffffffffffffffffffffffffffff1673ffffffffffffffffffffffffffffffffffffffff16815260200191505060405180910390f35b6101ef6004803603602081101561014c57600080fd5b810190808035906020019064010000000081111561016957600080fd5b82018360208201111561017b57600080fd5b8035906020019184600183028401116401000000008311171561019d57600080fd5b91908080601f016020809104026020016040519081016040528093929190818152602001838380828437600081840152601f19601f8201169050808301925050505050505091929192905050506102b7565b604051808273ffffffffffffffffffffffffffffffffffffffff1673ffffffffffffffffffffffffffffffffffffffff16815260200191505060405180910390f35b60008151602083016000f09050803b156001811461024e57610253565b600080fd5b506000828051906020012090508160008083815260200190815260200160002060006101000a81548173ffffffffffffffffffffffffffffffffffffffff021916908373ffffffffffffffffffffffffffffffffffffffff16021790555050919050565b6000808280519060200120905060008082815260200190815260200160002060009054906101000a900473ffffffffffffffffffffffffffffffffffffffff1691505091905056fea265627a7a7231582007bdfb9a1ce6bb2a8d0f7ed38d461114eec351b8ba0080350b9cf30a51fc685464736f6c634300050b0032",
  "source": "// proxy.sol - execute actions atomically through the proxy's identity\n\n// Copyright (C) 2017  DappHub, LLC\n\n// This program is free software: you can redistribute it and/or modify\n// it under the terms of the GNU General Public License as published by\n// the Free Software Foundation, either version 3 of the License, or\n// (at your option) any later version.\n\n// This program is distributed in the hope that it will be useful,\n// but WITHOUT ANY WARRANTY; without even the implied warranty of\n// MERCHANTABILITY or FITNESS FOR A PARTICULAR PURPOSE.  See the\n// GNU General Public License for more details.\n\n// You should have received a copy of the GNU General Public License\n// along with this program.  If not, see <http://www.gnu.org/licenses/>.\n\npragma solidity >=0.5.0 <0.6.0;\n\nimport \"./Auth.sol\";\nimport \"./Note.sol\";\n\n// DSProxy\n// Allows code execution using a persistant identity This can be very\n// useful to execute a sequence of atomic actions. Since the owner of\n// the proxy can be changed, this allows for dynamic ownership models\n// i.e. a multisig\ncontract DSProxy is DSAuth, DSNote {\n    DSProxyCache public cache;  // global cache for contracts\n\n    constructor(address _cacheAddr) public {\n        setCache(_cacheAddr);\n    }\n\n    function() external payable {\n    }\n\n    // use the proxy to execute calldata _data on contract _code\n    function execute(bytes memory _code, bytes memory _data)\n        public\n        payable\n        returns (address target, bytes memory response)\n    {\n        target = cache.read(_code);\n        if (target == address(0)) {\n            // deploy contract & store its address in cache\n            target = cache.write(_code);\n        }\n\n        response = execute(target, _data);\n    }\n\n    function execute(address _target, bytes memory _data)\n        public\n        auth\n        note\n        payable\n        returns (bytes memory response)\n    {\n        require(_target != address(0), \"ds-proxy-target-address-required\");\n\n        // call contract in current context\n        assembly {\n            let succeeded := delegatecall(sub(gas, 5000), _target, add(_data, 0x20), mload(_data), 0, 0)\n            let size := returndatasize\n\n            response := mload(0x40)\n            mstore(0x40, add(response, and(add(add(size, 0x20), 0x1f), not(0x1f))))\n            mstore(response, size)\n            returndatacopy(add(response, 0x20), 0, size)\n\n            switch iszero(succeeded)\n            case 1 {\n                // throw if delegatecall failed\n                revert(add(response, 0x20), size)\n            }\n        }\n    }\n\n    //set new cache\n    function setCache(address _cacheAddr)\n        public\n        auth\n        note\n        returns (bool)\n    {\n        require(_cacheAddr != address(0), \"ds-proxy-cache-address-required\");\n        cache = DSProxyCache(_cacheAddr);  // overwrite cache\n        return true;\n    }\n}\n\n// DSProxyFactory\n// This factory deploys new proxy instances through build()\n// Deployed proxy addresses are logged\ncontract DSProxyFactory {\n    event Created(address indexed sender, address indexed owner, address proxy, address cache);\n    mapping(address=>bool) public isProxy;\n    DSProxyCache public cache;\n\n    constructor() public {\n        cache = new DSProxyCache();\n    }\n\n    // deploys a new proxy instance\n    // sets owner of proxy to caller\n    function build() public returns (address payable proxy) {\n        proxy = build(msg.sender);\n    }\n\n    // deploys a new proxy instance\n    // sets custom owner of proxy\n    function build(address owner) public returns (address payable proxy) {\n        proxy = address(new DSProxy(address(cache)));\n        emit Created(msg.sender, owner, address(proxy), address(cache));\n        DSProxy(proxy).setOwner(owner);\n        isProxy[proxy] = true;\n    }\n}\n\n// DSProxyCache\n// This global cache stores addresses of contracts previously deployed\n// by a proxy. This saves gas from repeat deployment of the same\n// contracts and eliminates blockchain bloat.\n\n// By default, all proxies deployed from the same factory store\n// contracts in the same cache. The cache a proxy instance uses can be\n// changed.  The cache uses the sha3 hash of a contract's bytecode to\n// lookup the address\ncontract DSProxyCache {\n    mapping(bytes32 => address) cache;\n\n    function read(bytes memory _code) public view returns (address) {\n        bytes32 hash = keccak256(_code);\n        return cache[hash];\n    }\n\n    function write(bytes memory _code) public returns (address target) {\n        assembly {\n            target := create(0, add(_code, 0x20), mload(_code))\n            switch iszero(extcodesize(target))\n            case 1 {\n                // throw if contract failed to deploy\n                revert(0, 0)\n            }\n        }\n        bytes32 hash = keccak256(_code);\n        cache[hash] = target;\n    }\n}",
  "sourcePath": "/home/ubuntu/work/akiva/blockchain/contracts/Proxy.sol",
  "compiler": {
    "name": "solc",
    "version": "0.5.11+commit.c082d0b4.Emscripten.clang"
  },
  "schemaVersion": "3.0.11",
  "updatedAt": "2019-08-27T12:53:13.299Z",
  "devdoc": {
    "methods": {}
  },
  "userdoc": {
    "methods": {}
  }
}