{
  "contractName": "McdWrapper",
  "abi": [
    {
      "constant": true,
      "inputs": [],
      "name": "proxyRegistryAddr",
      "outputs": [
        {
          "internalType": "address",
          "name": "",
          "type": "address"
        }
      ],
      "payable": false,
      "stateMutability": "view",
      "type": "function"
    },
    {
      "constant": true,
      "inputs": [],
      "name": "mcdDaiAddr",
      "outputs": [
        {
          "internalType": "address",
          "name": "",
          "type": "address"
        }
      ],
      "payable": false,
      "stateMutability": "view",
      "type": "function"
    },
    {
      "constant": true,
      "inputs": [],
      "name": "mcdJoinEthaAddr",
      "outputs": [
        {
          "internalType": "address",
          "name": "",
          "type": "address"
        }
      ],
      "payable": false,
      "stateMutability": "view",
      "type": "function"
    },
    {
      "constant": true,
      "inputs": [],
      "name": "proxyLib",
      "outputs": [
        {
          "internalType": "address",
          "name": "",
          "type": "address"
        }
      ],
      "payable": false,
      "stateMutability": "view",
      "type": "function"
    },
    {
      "constant": true,
      "inputs": [],
      "name": "wethAddr",
      "outputs": [
        {
          "internalType": "address",
          "name": "",
          "type": "address"
        }
      ],
      "payable": false,
      "stateMutability": "view",
      "type": "function"
    },
    {
      "constant": true,
      "inputs": [],
      "name": "mcdJoinDaiAddr",
      "outputs": [
        {
          "internalType": "address",
          "name": "",
          "type": "address"
        }
      ],
      "payable": false,
      "stateMutability": "view",
      "type": "function"
    },
    {
      "constant": true,
      "inputs": [],
      "name": "getCdpsAddr",
      "outputs": [
        {
          "internalType": "address",
          "name": "",
          "type": "address"
        }
      ],
      "payable": false,
      "stateMutability": "view",
      "type": "function"
    },
    {
      "constant": true,
      "inputs": [],
      "name": "cdpManagerAddr",
      "outputs": [
        {
          "internalType": "address",
          "name": "",
          "type": "address"
        }
      ],
      "payable": false,
      "stateMutability": "view",
      "type": "function"
    },
    {
      "constant": true,
      "inputs": [],
      "name": "mcdVat",
      "outputs": [
        {
          "internalType": "address",
          "name": "",
          "type": "address"
        }
      ],
      "payable": false,
      "stateMutability": "view",
      "type": "function"
    },
    {
      "inputs": [],
      "payable": false,
      "stateMutability": "nonpayable",
      "type": "constructor"
    },
    {
      "constant": false,
      "inputs": [],
      "name": "buildProxy",
      "outputs": [
        {
          "internalType": "address payable",
          "name": "proxy",
          "type": "address"
        }
      ],
      "payable": false,
      "stateMutability": "nonpayable",
      "type": "function"
    },
    {
      "constant": true,
      "inputs": [],
      "name": "proxy",
      "outputs": [
        {
          "internalType": "contract DSProxy",
          "name": "",
          "type": "address"
        }
      ],
      "payable": false,
      "stateMutability": "view",
      "type": "function"
    },
    {
      "constant": false,
      "inputs": [
        {
          "internalType": "address",
          "name": "",
          "type": "address"
        },
        {
          "internalType": "address",
          "name": "",
          "type": "address"
        },
        {
          "internalType": "uint256",
          "name": "",
          "type": "uint256"
        }
      ],
      "name": "transfer",
      "outputs": [],
      "payable": false,
      "stateMutability": "nonpayable",
      "type": "function"
    },
    {
      "constant": false,
      "inputs": [
        {
          "internalType": "string",
          "name": "ilk",
          "type": "string"
        }
      ],
      "name": "openCdp",
      "outputs": [
        {
          "internalType": "uint256",
          "name": "cdp",
          "type": "uint256"
        }
      ],
      "payable": false,
      "stateMutability": "nonpayable",
      "type": "function"
    }
  ],
  "bytecode": "0x608060405234801561001057600080fd5b5073da657e86db3e76bda6d88e6a09798f0bbf5bdf756000806101000a81548173ffffffffffffffffffffffffffffffffffffffff021916908373ffffffffffffffffffffffffffffffffffffffff16021790555073da657e86db3e76bda6d88e6a09798f0bbf5bdf75600160006101000a81548173ffffffffffffffffffffffffffffffffffffffff021916908373ffffffffffffffffffffffffffffffffffffffff16021790555073d2e8d886bc185df6f437e22df923ddf419dad4b8600260006101000a81548173ffffffffffffffffffffffffffffffffffffffff021916908373ffffffffffffffffffffffffffffffffffffffff160217905550610c878061011e6000396000f3fe608060405234801561001057600080fd5b50600436106100cf5760003560e01c80639c3d46071161008c578063beabacc811610066578063beabacc81461036e578063d7bdc03d146103dc578063e924f5a9146104ab578063ec556889146104f5576100cf565b80639c3d460714610290578063a99a961b146102da578063adc51a4a14610324576100cf565b8063301747ee146100d457806345e83cb31461011e5780634cf6e1ea146101685780635068deb7146101b25780637d5aa5f4146101fc5780639141620a14610246575b600080fd5b6100dc61053f565b604051808273ffffffffffffffffffffffffffffffffffffffff1673ffffffffffffffffffffffffffffffffffffffff16815260200191505060405180910390f35b610126610564565b604051808273ffffffffffffffffffffffffffffffffffffffff1673ffffffffffffffffffffffffffffffffffffffff16815260200191505060405180910390f35b61017061058a565b604051808273ffffffffffffffffffffffffffffffffffffffff1673ffffffffffffffffffffffffffffffffffffffff16815260200191505060405180910390f35b6101ba6105b0565b604051808273ffffffffffffffffffffffffffffffffffffffff1673ffffffffffffffffffffffffffffffffffffffff16815260200191505060405180910390f35b6102046105d6565b604051808273ffffffffffffffffffffffffffffffffffffffff1673ffffffffffffffffffffffffffffffffffffffff16815260200191505060405180910390f35b61024e6105fc565b604051808273ffffffffffffffffffffffffffffffffffffffff1673ffffffffffffffffffffffffffffffffffffffff16815260200191505060405180910390f35b610298610622565b604051808273ffffffffffffffffffffffffffffffffffffffff1673ffffffffffffffffffffffffffffffffffffffff16815260200191505060405180910390f35b6102e2610648565b604051808273ffffffffffffffffffffffffffffffffffffffff1673ffffffffffffffffffffffffffffffffffffffff16815260200191505060405180910390f35b61032c61066e565b604051808273ffffffffffffffffffffffffffffffffffffffff1673ffffffffffffffffffffffffffffffffffffffff16815260200191505060405180910390f35b6103da6004803603606081101561038457600080fd5b81019080803573ffffffffffffffffffffffffffffffffffffffff169060200190929190803573ffffffffffffffffffffffffffffffffffffffff16906020019092919080359060200190929190505050610750565b005b610495600480360360208110156103f257600080fd5b810190808035906020019064010000000081111561040f57600080fd5b82018360208201111561042157600080fd5b8035906020019184600183028401116401000000008311171561044357600080fd5b91908080601f016020809104026020016040519081016040528093929190818152602001838380828437600081840152601f19601f82011690508083019250505050505050919291929050505061092c565b6040518082815260200191505060405180910390f35b6104b36109d2565b604051808273ffffffffffffffffffffffffffffffffffffffff1673ffffffffffffffffffffffffffffffffffffffff16815260200191505060405180910390f35b6104fd6109f8565b604051808273ffffffffffffffffffffffffffffffffffffffff1673ffffffffffffffffffffffffffffffffffffffff16815260200191505060405180910390f35b6000809054906101000a900473ffffffffffffffffffffffffffffffffffffffff1681565b600360009054906101000a900473ffffffffffffffffffffffffffffffffffffffff1681565b600860009054906101000a900473ffffffffffffffffffffffffffffffffffffffff1681565b600160009054906101000a900473ffffffffffffffffffffffffffffffffffffffff1681565b600760009054906101000a900473ffffffffffffffffffffffffffffffffffffffff1681565b600460009054906101000a900473ffffffffffffffffffffffffffffffffffffffff1681565b600660009054906101000a900473ffffffffffffffffffffffffffffffffffffffff1681565b600260009054906101000a900473ffffffffffffffffffffffffffffffffffffffff1681565b60008060009054906101000a900473ffffffffffffffffffffffffffffffffffffffff1673ffffffffffffffffffffffffffffffffffffffff1663f3701da2336040518263ffffffff1660e01b8152600401808273ffffffffffffffffffffffffffffffffffffffff1673ffffffffffffffffffffffffffffffffffffffff168152602001915050602060405180830381600087803b15801561071057600080fd5b505af1158015610724573d6000803e3d6000fd5b505050506040513d602081101561073a57600080fd5b8101908080519060200190929190505050905090565b6107586109f8565b73ffffffffffffffffffffffffffffffffffffffff16631cff79cd600160009054906101000a900473ffffffffffffffffffffffffffffffffffffffff166000366040518463ffffffff1660e01b8152600401808473ffffffffffffffffffffffffffffffffffffffff1673ffffffffffffffffffffffffffffffffffffffff168152602001806020018281038252848482818152602001925080828437600081840152601f19601f820116905080830192505050945050505050600060405180830381600087803b15801561082d57600080fd5b505af1158015610841573d6000803e3d6000fd5b505050506040513d6000823e3d601f19601f82011682018060405250602081101561086b57600080fd5b810190808051604051939291908464010000000082111561088b57600080fd5b838201915060208201858111156108a157600080fd5b82518660018202830111640100000000821117156108be57600080fd5b8083526020830192505050908051906020019080838360005b838110156108f25780820151818401526020810190506108d7565b50505050905090810190601f16801561091f5780820380516001836020036101000a031916815260200191505b5060405250505050505050565b60006109cb600260009054906101000a900473ffffffffffffffffffffffffffffffffffffffff16836040516020018082805190602001908083835b6020831061098b5780518252602082019150602081019050602083039250610968565b6001836020036101000a03801982511681845116808217855250505050505090500191505060405160208183030381529060405280519060200120610ad8565b9050919050565b600560009054906101000a900473ffffffffffffffffffffffffffffffffffffffff1681565b60008060009054906101000a900473ffffffffffffffffffffffffffffffffffffffff1673ffffffffffffffffffffffffffffffffffffffff1663c4552791336040518263ffffffff1660e01b8152600401808273ffffffffffffffffffffffffffffffffffffffff1673ffffffffffffffffffffffffffffffffffffffff16815260200191505060206040518083038186803b158015610a9857600080fd5b505afa158015610aac573d6000803e3d6000fd5b505050506040513d6020811015610ac257600080fd5b8101908080519060200190929190505050905090565b600080610ae36109f8565b90506060600160009054906101000a900473ffffffffffffffffffffffffffffffffffffffff16600036604051602401808473ffffffffffffffffffffffffffffffffffffffff1673ffffffffffffffffffffffffffffffffffffffff168152602001806020018281038252848482818152602001925080828437600081840152601f19601f8201169050808301925050509450505050506040516020818303038152906040527f1cff79cd000000000000000000000000000000000000000000000000000000007bffffffffffffffffffffffffffffffffffffffffffffffffffffffff19166020820180517bffffffffffffffffffffffffffffffffffffffffffffffffffffffff83818316178352505050509050600080825160208401856113885a03f43d604051601f19601f6020840101168101604052818152816000602083013e60608101519550821560018114610c3f57610c46565b8260208301fd5b5050505050509291505056fea265627a7a723158204128b339fca3e07ba9ff4f505c9e99d7f3966079f93ca0b11fc069c9e8ba60b464736f6c634300050b0032",
  "source": "pragma solidity >=0.5.0;\n\nimport \"./ProxyRegistry.sol\";\n\n\ncontract DaiLike {\n    function approve(address usr, uint wad) external returns (bool);\n}\n\ncontract McdWrapper {\n    address public proxyRegistryAddr;\n    address public proxyLib;\n    address public cdpManagerAddr;\n    address public mcdDaiAddr;\n    address public mcdJoinDaiAddr;\n    address public mcdVat;\n    address public getCdpsAddr;\n    address public wethAddr;\n    address public mcdJoinEthaAddr;\n    \n    constructor() public {\n        proxyRegistryAddr = 0xda657E86db3e76BDa6d88e6a09798F0BBF5bDf75;\n        proxyLib = 0xda657E86db3e76BDa6d88e6a09798F0BBF5bDf75;\n        cdpManagerAddr = 0xd2e8d886Bc185Df6f437E22DF923DdF419daD4B8;\n        // mcdDaiAddr = 0xc7cc3413f169a027dccfeffe5208ca4f38ef0c40;\n        // mcdJoinDaiAddr = \"0x7bb403aae0330f1acaad8f2a06ebe4b4e4784418\";\n        // mcdVat = \"0xacdd1ee0f74954ed8f0ac581b081b7b86bd6aad9\";\n        // getCdpsAddr = \"0x81dd44a647dac3e052d8eaf2c9f11ed3a9941dd7\";\n        // wethAddr = \"0xb39862d7d1b11cd9b781b1473e142cbb545a6871\";\n        // mcdJoinEthaAddr = \"0x75f0660705ef0db9adde85337980f579626643af\";\n    }\n    \n    function buildProxy() public returns (address payable proxy) {\n        proxy = ProxyRegistry(proxyRegistryAddr).build(msg.sender);\n    }\n\n    function proxy() public view returns (DSProxy) {\n        return ProxyRegistry(proxyRegistryAddr).proxies(msg.sender);\n    }\n    \n    // function setOwnerProxy(address _owner) public {\n    //     proxy().setOwner(_owner);\n    //     address(proxy()).delegatecall(abi.encodeWithSignature(\"setOwner(address)\", _owner));\n    // }\n    \n    function transfer(address, address, uint256) public {\n        proxy().execute(proxyLib, msg.data);\n    }\n\n    function openCdp(string memory ilk) public returns(uint cdp) {\n        cdp = _open(cdpManagerAddr, keccak256(abi.encodePacked(ilk)));\n    }\n\n    function _open(address, bytes32) internal returns (uint cdp) {\n        address payable target = address(proxy());\n        bytes memory data = abi.encodeWithSignature(\"execute(address,bytes)\", proxyLib, msg.data);\n        assembly {\n            let succeeded := delegatecall(sub(gas, 5000), target, add(data, 0x20), mload(data), 0, 0)\n            let size := returndatasize\n            let response := mload(0x40)\n            mstore(0x40, add(response, and(add(add(size, 0x20), 0x1f), not(0x1f))))\n            mstore(response, size)\n            returndatacopy(add(response, 0x20), 0, size)\n\n            cdp := mload(add(response, 0x60))\n\n            switch iszero(succeeded)\n            case 1 {\n                // throw if delegatecall failed\n                revert(add(response, 0x20), size)\n            }\n        }\n    }\n\n//     function give(address, uint, address) public {\n//         proxy.execute(proxyLib, msg.data);\n//     }\n\n//     function giveToProxy(address, address, uint, address) public {\n//         proxy.execute(proxyLib, msg.data);\n//     }\n\n//     function allow(address, uint, address, uint) public {\n//         proxy.execute(proxyLib, msg.data);\n//     }\n\n//     function hope(address, address) public {\n//         proxy.execute(proxyLib, msg.data);\n//     }\n\n//     function nope(address, address) public {\n//         proxy.execute(proxyLib, msg.data);\n//     }\n\n//     function flux(address, uint, address, uint) public {\n//         proxy.execute(proxyLib, msg.data);\n//     }\n\n//     function move(address, uint, address, uint) public {\n//         proxy.execute(proxyLib, msg.data);\n//     }\n\n//     function frob(address, uint, int, int) public {\n//         proxy.execute(proxyLib, msg.data);\n//     }\n\n//     function frob(address, uint, address, int, int) public {\n//         proxy.execute(proxyLib, msg.data);\n//     }\n\n//     function quit(address, uint, address) public {\n//         proxy.execute(proxyLib, msg.data);\n//     }\n\n//     function lockETH(address, address, uint) public payable {\n//         (bool success,) = address(proxy).call.value(msg.value)(abi.encodeWithSignature(\"execute(address,bytes)\", proxyLib, msg.data));\n//         require(success, \"\");\n//     }\n\n//     function safeLockETH(address, address, uint) public payable {\n//         (bool success,) = address(proxy).call.value(msg.value)(abi.encodeWithSignature(\"execute(address,bytes)\", proxyLib, msg.data));\n//         require(success, \"\");\n//     }\n\n//     function lockGem(address, address, uint, uint, bool) public {\n//         proxy.execute(proxyLib, msg.data);\n//     }\n\n//     function safeLockGem(address, address, uint, uint, bool) public {\n//         proxy.execute(proxyLib, msg.data);\n//     }\n\n//     function makeGemBag(address) public returns (address bag) {\n//         address payable target = address(proxy);\n//         bytes memory data = abi.encodeWithSignature(\"execute(address,bytes)\", proxyLib, msg.data);\n//         assembly {\n//             let succeeded := call(sub(gas, 5000), target, callvalue, add(data, 0x20), mload(data), 0, 0)\n//             let size := returndatasize\n//             let response := mload(0x40)\n//             mstore(0x40, add(response, and(add(add(size, 0x20), 0x1f), not(0x1f))))\n//             mstore(response, size)\n//             returndatacopy(add(response, 0x20), 0, size)\n\n//             bag := mload(add(response, 0x60))\n\n//             switch iszero(succeeded)\n//             case 1 {\n//                 // throw if delegatecall failed\n//                 revert(add(response, 0x20), size)\n//             }\n//         }\n//     }\n\n//     function freeETH(address, address, uint, uint) public {\n//         proxy.execute(proxyLib, msg.data);\n//     }\n\n//     function freeGem(address, address, uint, uint) public {\n//         proxy.execute(proxyLib, msg.data);\n//     }\n\n//     function draw(address, address, address, uint, uint) public {\n//         proxy.execute(proxyLib, msg.data);\n//     }\n\n//     function wipe(address, address, uint, uint) public {\n//         proxy.execute(proxyLib, msg.data);\n//     }\n\n//     function wipeAll(address, address, uint) public {\n//         proxy.execute(proxyLib, msg.data);\n//     }\n\n//     function safeWipe(address, address, uint, uint) public {\n//         proxy.execute(proxyLib, msg.data);\n//     }\n\n//     function safeWipeAll(address, address, uint) public {\n//         proxy.execute(proxyLib, msg.data);\n//     }\n\n//     function lockETHAndDraw(address, address, address, address, uint, uint) public payable {\n//         (bool success,) = address(proxy).call.value(msg.value)(abi.encodeWithSignature(\"execute(address,bytes)\", proxyLib, msg.data));\n//         require(success, \"\");\n//     }\n\n//     function openLockETHAndDraw(address,address,address,bytes32,uint) public payable returns (uint cdp) {\n//         address payable target = address(proxy);\n//         bytes memory data = abi.encodeWithSignature(\"execute(address,bytes)\", proxyLib, msg.data);\n//         assembly {\n//             let succeeded := call(sub(gas, 5000), target, callvalue, add(data, 0x20), mload(data), 0, 0)\n//             let size := returndatasize\n//             let response := mload(0x40)\n//             mstore(0x40, add(response, and(add(add(size, 0x20), 0x1f), not(0x1f))))\n//             mstore(response, size)\n//             returndatacopy(add(response, 0x20), 0, size)\n\n//             cdp := mload(add(response, 0x60))\n\n//             switch iszero(succeeded)\n//             case 1 {\n//                 // throw if delegatecall failed\n//                 revert(add(response, 0x20), size)\n//             }\n//         }\n//     }\n\n//     function lockGemAndDraw(address, address, address, address, uint, uint, uint, bool) public {\n//         proxy.execute(proxyLib, msg.data);\n//     }\n\n//     function openLockGemAndDraw(address, address, address, address, bytes32, uint, uint, bool) public returns (uint cdp) {\n//         bytes memory response = proxy.execute(proxyLib, msg.data);\n//         assembly {\n//             cdp := mload(add(response, 0x20))\n//         }\n//     }\n\n//     function openLockGNTAndDraw(address, address, address, address, bytes32, uint, uint) public returns (address bag, uint cdp) {\n//         bytes memory response = proxy.execute(proxyLib, msg.data);\n//         assembly {\n//             bag := mload(add(response, 0x20))\n//             cdp := mload(add(response, 0x40))\n//         }\n//     }\n\n//     function wipeAndFreeETH(address, address, address, uint, uint, uint) public {\n//         proxy.execute(proxyLib, msg.data);\n//     }\n\n//     function wipeAllAndFreeETH(address, address, address, uint, uint) public {\n//         proxy.execute(proxyLib, msg.data);\n//     }\n\n//     function wipeAndFreeGem(address, address, address, uint, uint, uint) public {\n//         proxy.execute(proxyLib, msg.data);\n//     }\n\n//     function wipeAllAndFreeGem(address, address, address, uint, uint) public {\n//         proxy.execute(proxyLib, msg.data);\n//     }\n\n//     function dsrJoin(address, address, uint) public {\n//         proxy.execute(proxyLib, msg.data);\n//     }\n\n//     function dsrExit(address, address, uint) public {\n//         proxy.execute(proxyLib, msg.data);\n//     }\n\n//     function dsrExitAll(address, address) public {\n//         proxy.execute(proxyLib, msg.data);\n//     }\n    \n//     function approveDai(address _dai, address _to, uint _amount) public returns(bool) {\n//         DaiLike(_dai).approve(_to, _amount);\n//         return true;\n//     }\n}",
  "sourcePath": "/home/ubuntu/work/akiva/blockchain/contracts/McdWrapper.sol",
  "compiler": {
    "name": "solc",
    "version": "0.5.11+commit.c082d0b4.Emscripten.clang"
  },
  "schemaVersion": "3.0.11",
  "updatedAt": "2019-08-27T13:10:05.253Z",
  "devdoc": {
    "methods": {}
  },
  "userdoc": {
    "methods": {}
  }
}