{
  "contractName": "ProxyRegistry",
  "abi": [
    {
      "constant": true,
      "inputs": [
        {
          "internalType": "address",
          "name": "",
          "type": "address"
        }
      ],
      "name": "proxies",
      "outputs": [
        {
          "internalType": "contract DSProxy",
          "name": "",
          "type": "address"
        }
      ],
      "payable": false,
      "stateMutability": "view",
      "type": "function"
    },
    {
      "inputs": [
        {
          "internalType": "address",
          "name": "factory_",
          "type": "address"
        }
      ],
      "payable": false,
      "stateMutability": "nonpayable",
      "type": "constructor"
    },
    {
      "constant": false,
      "inputs": [],
      "name": "build",
      "outputs": [
        {
          "internalType": "address payable",
          "name": "proxy",
          "type": "address"
        }
      ],
      "payable": false,
      "stateMutability": "nonpayable",
      "type": "function"
    },
    {
      "constant": false,
      "inputs": [
        {
          "internalType": "address",
          "name": "owner",
          "type": "address"
        }
      ],
      "name": "build",
      "outputs": [
        {
          "internalType": "address payable",
          "name": "proxy",
          "type": "address"
        }
      ],
      "payable": false,
      "stateMutability": "nonpayable",
      "type": "function"
    }
  ],
  "bytecode": "0x608060405234801561001057600080fd5b506040516105b23803806105b28339818101604052602081101561003357600080fd5b810190808051906020019092919050505080600160006101000a81548173ffffffffffffffffffffffffffffffffffffffff021916908373ffffffffffffffffffffffffffffffffffffffff1602179055505061051d806100956000396000f3fe608060405234801561001057600080fd5b50600436106100415760003560e01c80638e1a55fc14610046578063c455279114610090578063f3701da214610114575b600080fd5b61004e610198565b604051808273ffffffffffffffffffffffffffffffffffffffff1673ffffffffffffffffffffffffffffffffffffffff16815260200191505060405180910390f35b6100d2600480360360208110156100a657600080fd5b81019080803573ffffffffffffffffffffffffffffffffffffffff1690602001909291905050506101a8565b604051808273ffffffffffffffffffffffffffffffffffffffff1673ffffffffffffffffffffffffffffffffffffffff16815260200191505060405180910390f35b6101566004803603602081101561012a57600080fd5b81019080803573ffffffffffffffffffffffffffffffffffffffff1690602001909291905050506101db565b604051808273ffffffffffffffffffffffffffffffffffffffff1673ffffffffffffffffffffffffffffffffffffffff16815260200191505060405180910390f35b60006101a3336101db565b905090565b60006020528060005260406000206000915054906101000a900473ffffffffffffffffffffffffffffffffffffffff1681565b60008073ffffffffffffffffffffffffffffffffffffffff166000808473ffffffffffffffffffffffffffffffffffffffff1673ffffffffffffffffffffffffffffffffffffffff16815260200190815260200160002060009054906101000a900473ffffffffffffffffffffffffffffffffffffffff1673ffffffffffffffffffffffffffffffffffffffff16148061037f57508173ffffffffffffffffffffffffffffffffffffffff166000808473ffffffffffffffffffffffffffffffffffffffff1673ffffffffffffffffffffffffffffffffffffffff16815260200190815260200160002060009054906101000a900473ffffffffffffffffffffffffffffffffffffffff1673ffffffffffffffffffffffffffffffffffffffff16638da5cb5b6040518163ffffffff1660e01b815260040160206040518083038186803b15801561032b57600080fd5b505afa15801561033f573d6000803e3d6000fd5b505050506040513d602081101561035557600080fd5b810190808051906020019092919050505073ffffffffffffffffffffffffffffffffffffffff1614155b61038857600080fd5b600160009054906101000a900473ffffffffffffffffffffffffffffffffffffffff1673ffffffffffffffffffffffffffffffffffffffff1663f3701da2836040518263ffffffff1660e01b8152600401808273ffffffffffffffffffffffffffffffffffffffff1673ffffffffffffffffffffffffffffffffffffffff168152602001915050602060405180830381600087803b15801561042957600080fd5b505af115801561043d573d6000803e3d6000fd5b505050506040513d602081101561045357600080fd5b81019080805190602001909291905050509050806000808473ffffffffffffffffffffffffffffffffffffffff1673ffffffffffffffffffffffffffffffffffffffff16815260200190815260200160002060006101000a81548173ffffffffffffffffffffffffffffffffffffffff021916908373ffffffffffffffffffffffffffffffffffffffff16021790555091905056fea265627a7a72315820fa9a367e81521fe723d9867f5aefbaf8d0a0d07ded7fe2c35892df71afdaeef664736f6c634300050b0032",
  "source": "pragma solidity >=0.5.0;\n\nimport './Proxy.sol';\n\n// This Registry deploys new proxy instances through DSProxyFactory.build(address) and keeps a registry of owner => proxy\ncontract ProxyRegistry {\n    mapping(address => DSProxy) public proxies;\n    DSProxyFactory factory;\n\n    constructor(address factory_) public {\n        factory = DSProxyFactory(factory_);\n    }\n\n    // deploys a new proxy instance\n    // sets owner of proxy to caller\n    function build() public returns (address payable proxy) {\n        proxy = build(msg.sender);\n    }\n\n    // deploys a new proxy instance\n    // sets custom owner of proxy\n    function build(address owner) public returns (address payable proxy) {\n        require(proxies[owner] == DSProxy(0) || proxies[owner].owner() != owner); // Not allow new proxy if the user already has one and remains being the owner\n        proxy = factory.build(owner);\n        proxies[owner] = DSProxy(proxy);\n    }\n}",
  "sourcePath": "/home/ubuntu/work/akiva/blockchain/contracts/ProxyRegistry.sol",
  "compiler": {
    "name": "solc",
    "version": "0.5.11+commit.c082d0b4.Emscripten.clang"
  },
  "schemaVersion": "3.0.11",
  "updatedAt": "2019-08-27T12:53:13.304Z",
  "devdoc": {
    "methods": {}
  },
  "userdoc": {
    "methods": {}
  }
}